:0E007A0075A800D2AB438910C28F758DE0755A
:070088008B50D28EC29722BB
:0D008F0090003CE0FA90003C74012AF090D3
:0B009C00003CE0FABA1704C297800A8B
:0A00A700BA2E07D29790003CE4F057
:0900B100758DE0758B50D28E2292
:010F270000C9
:0900BA0074C1C0E0740DC0E01235
:0B00C3000395158115817413C0E074D3
:0B00CE000EC0E012039515811581742F
:0800D90065C0E0740EC0E012E6
:0B00E10003951581158174B7C0E07411
:0B00EC000EC0E0120395158115812263
:0E00F700E582900000F0438780759850539B7F
:0E010500EC439B0E900000E0F59AD2AF439BB6
:020113001022B8
:0C011500E582900001F0900001E0F599F7
:0501210010990280FBB3
:0101260022B6
:0501270010980280FBAE
:05012C00AA998A82225D
:0E013100AAF0AB83E582900002F0A3EBF0A3EE
:0E013F00EAF0900002E0FAA3E0FBA3E0FC7DF2
:03014D00007E0031
:0E0150008A828B838CF0120D88FF60300ABA11
:03015E0000010B92
:0E016100900002EAF0A3EBF0A3ECF08F82C056
:0E016F0002C003C004C005C006120115D00670
:0E017D00D005D004D003D0020DBD00C70E8007
:01018B00C4AF
:0E018C00900002EAF0A3EBF0A3ECF00DBD0032
:02019A00010E54
:05019C008D828E83221C
:0A01A1007409C0E0740FC0E0748020
:0C01AB00C0E01204E91581158115817473
:0A01B7000CC0E0740FC0E07480C0BB
:0B01C100E01204E91581158115812270
:0E0DC1002A2A2A2A2A2A2A2A2A2A2A2A2A2AD8
:0E0DCF002A2A2A2A2A2A2A2A2A2A2A2A2A2ACA
:0E0DDD002A2A2A2A2A2A2A2A2A2A2A2A2A2ABC
:0E0DEB002A2A2A2A2A2A2A2A2A2A2A2A2A2AAE
:0E0DF9002A2A2A2A2A2A2A2A2A2A2A2A2A2AA0
:0C0E07002A2A2A2A2A2A2A2A2A0A0D004E
:0E0E13002A2A2A2A2A2A2A2A2A2A20202020AD
:0E0E210020454D424544444544205359535406
:0E0E2F00454D532044455349474E203A205329
:0E0E3D005052494E472032303131203A204C7D
:0E0E4B004142204E4F2E203420202020202A0D
:0C0E59002A2A2A2A2A2A2A2A2A0A0D00FC
:0E0E65002A2A2A2A2A2A2A2A2A2A202020205B
:0E0E73002043726561746564206279203A4DF7
:0E0E810061756C696B204B6170757269612040
:0E0E8F00202020202020202020202020202095
:0E0E9D00202020202020202020202020202A7D
:0C0EAB002A2A2A2A2A2A2A2A2A0A0D00AA
:0E0EB7002A2A2A2A2A2A2A2A2A2A2020202009
:0E0EC500204269742042616E676564204932E4
:0E0ED300432070726F6772616D202020202016
:0E0EE100202020202020202020202020202043
:0E0EEF00202020202020202020202020202A2B
:0C0EFD002A2A2A2A2A2A2A2A2A0A0D0058
:030F09001B630067
:050F0C001B5B324A00EE
:0400000002001E32AA
:01000B0032C2
:0100130032BA
:03001B0002023F9F
:030077000201CCB7
:0501CC001201D880FEC5
:0701D100438E0C9000002298
:0A01D800120233D2AF7411C0E074BC
:0C01E2000FC0E07480C0E01204E9158139
:0E01EE00158115819000051202FF9000057426
:0C01FC0006F090004A75F00012027A90A4
:0C02080000057406F090004475F0001230
:02021400027A6C
:0B0216009000021202FF741AC0E07496
:0C0221000FC0E07480C0E01204E91581F9
:06022D001581158180E33C
:0A0233007582FD1200F712007A0236
:02023D0001A11D
:0E023F00C0E0C0F0C082C083C002C003C00493
:0E024D00C005C006C007C000C001C0D075D0FB
:0E025B000012008FD0D0D001D000D007D00606
:0E026900D005D004D003D002D083D082D0F0D4
:03027700D0E032A2
:0E027A00AAF0AB83E582900006F0A3EBF0A3A0
:0E028800EAF0900006E0FAA3E0FBA3E0FC9091
:060296000005E0FD7E0002
:0E029C00C3EE9D502EEE2AFFE43BF88C018F3E
:0E02AA0082888389F0120D88FFF582C002C0A1
:0E02B80003C004C005C0061202D0D006D00557
:0902C600D004D003D0020E80CD5B
:0102CF00220C
:0E02D000E582900009F0900009E0FA906000CD
:0C02DE00F0758360758200E0C294782DFA
:0402EA00D8FE7908B9
:0502EE00139294782D2D
:0902F300D8FED9F7D29413782D3E
:0302FC00D8FE2207
:090F1100476F74206865726500E9
:020F1A00610074
:020F28007C004B
:020F2A007C0445
:030F2C007C07320D
:060F2F007C0C10102020D4
:060F35007C0500007F3F77
:0E02FF00AA83E58290000AF0A3EAF090000ABC
:05030D00E0FAA3E0FB93
:0E031200C3E49A74808BF063F08095F050275E
:040320007C607DEA96
:08032400EC4D60047E01800233
:02032C007E0051
:0A032E00EE60071CBCFFEF1D80EC21
:050338001ABAFF011BD1
:0A033D0090000AEAF0A3EBF080CB79
:0903470090000AEAF0A3EBF02299
:0E035000AA83E58290000CF0A3EAF043890135
:0E035E00758CF4758A0390000CE0FAA3E0FBA6
:08036C00BA0005BB0002801677
:02037400D28C29
:05037600108D0280FB68
:05037B001ABAFF011B8E
:0A03800090000CEAF0A3EBF080E21D
:0B038A0090000CEAF0A3EBF0C28C2204
:06004D00E478FFF6D8FD87
:08002B007914E94400601B7A1E
:0500330001900F277889
:030038003C75A074
:0A003B0000E493F2A308B8000205E8
:08004500A0D9F4DAF275A0FF66
:05039500C0088581088D
:0B039A00E50824FDF886831886821811
:0E03A500E493A324DB600C242560051204827F
:0203B30080F0D8
:0303B50002049AA5
:0903B800D2D5E493A3C083C082F6
:0303C100B47314FE
:0903C40086F01886831886821861
:0B03CD00120D886053A312048280F51B
:0A03D800B46307E6181204828043A4
:0E03E200B46417E630E74618E6F42401F60886
:0C03F000E6F43400F6742D120482803311
:0A03FC00B4782D868318868218E479
:0B040600120473E583120472E58312F8
:0A0411000473E582120472E5821202
:0A041B00047330D50574301204821A
:07042500D082D0830203A581
:03042C00B475F6AE
:06042F00E6FA18E6F918D8
:0D0435007C107D2712045DFF7CE87D031222
:0E044200045DC4F5837C647D0012045D42837A
:0D045000E975F00A84C445F0F582EF80A93B
:02045D007B0022
:0E045F000BC3E99CF9EA9DFA50F61BE92CF953
:05046D00EA3DFAEB225C
:01047200C4C5
:07047300540F700320D51F98
:08047A00C2D52490D43440D413
:0E048200C083C082C0F0F582E8C0E012011510
:09049000D0E0F8D0F0D082D08356
:010499002240
:03049A00D0082265
:080053007800E84400600A791E
:03005B000075A08D
:06005E0000E4F309D8FCE8
:08006400783CE84400600C79CF
:0B006C0001900000E4F0A3D8FCD9FADA
:08049D00C008858108AA821243
:0504A5000115D0082242
:0E04AA00AAF0AB83E58290000FF0A3EBF0A365
:0E04B800EAF090000FE0FAA3E0FBA3E0FC9056
:0E04C600000EE0FD900022E4F0A3F0A3F09001
:0E04D4000025EAF0A3EBF0A3ECF0900028ED79
:0704E200F090049D020602E8
:0604E900C008858108E552
:0C04EF000824FBFA900022E4F0A3F0A324
:0C04FB00F0E50824FBF8900025E6F0086E
:0D050700A3E6F008A3E6F0900028EAF090CB
:0A051400049D120602AA82AB83D0F8
:02051E000822B1
:0C052000E58290001EF090001EE0FA90B2
:0E052C000014E0C0E0A3E0C0E0A3E0C0E07473
:08053A004EC0E07405C0E09022
:0C0542000012E0C0E0A3E0C0E08A8222CA
:0E054E0015811581158190001CE0FAA3E0FBD9
:0C055C0090001C74012AF0E43BA3F02284
:0E056800E58290001FF090001FE0FA74302A28
:0C057600FA24C6500A74072AFA30000369
:0305820043022011
:050585008A820205203E
:0E058A00E582900020F0900020E0FAC4540FAB
:0E059800FBF582C002120568D00253020F8AE2
:0405A6008202056860
:0E05AA00E582900021F0900017E0FAA3E0FB3C
:0E05B800A3E0FCA3E0FD90001BE0FE900021FC
:0405C600E0FF7820BA
:0E05CA00EE2EFEED235401F94206EA2AFAEB6A
:0E05D80033FBEC33FCED33FDC3EE9F4007EE2A
:0605E600C39FFE43020169
:0E05EC00D8DC900017EAF0A3EBF0A3ECF0A32C
:0805FA00EDF090001BEEF02271
:0E060200AA83E582900029F0A3EAF090002977
:0E061000E0FAA3E0FB900012EAF0A3EBF090FA
:0E061E000022E0FAA3E0FBA3E0FC900014EA47
:0E062C00F0A3EBF0A3ECF090001CE4F0A3F0C0
:0E063A00900025E0FAA3E0FBA3E0FC8A828B8F
:0E064800838CF0120D88FD90002574012AF0BD
:0D065600E43BA3F0A3ECF0ED7003020D29CE
:05066300BD250280032B
:03066800020D215F
:05066B00C201C202C241
:0406700003C204C2FB
:0406740005C206C2F3
:0406780007C208901D
:09067C00002BE4F090002CF0903A
:0E068500002D74FFF0900025E0FAA3E0FBA327
:02069300E0FC89
:0E0695008A828B838CF0120D88FEA3AA82ABA2
:0D06A30083900025EAF0A3EBF0A3ECF090AB
:0D06B000002FEEF0BE25088E8212052002FC
:0206BD00063AFB
:0506BF008E07BF3000B2
:0E06C40040498E07EF24C6404290002DE0FF13
:0E06D200BFFF29C002C003C00490002CE0FA54
:0E06E00075F00AA4FAEE24D090002C2AF090B7
:0D06EE00002CE0FAD004D003D002709BD2A3
:0306FB00028097E3
:0E06FE00EF75F00AA4FFEE24D090002D2FF02F
:03070C000206954D
:0E070F0090002FE0FEBE2E0890002DE4F002B8
:02071D0006953F
:0E071F008E82C002C003C004C006120DA4E505
:0C072D008224FF9200D006D004D003D03C
:0B0739000230000790002F74DF5EF01C
:0A07440090002FE0FEBE2002805559
:05074E00BE2B02804BF0
:05075300BE2D028041F3
:05075800BE4202804BCF
:05075D00BE43028050C4
:06076200BE4403020996EB
:06076800BE46030209B8C1
:06076E00BE4903020996DA
:05077400BE4C028034C0
:06077900BE4F030209A0BF
:06077F00BE50030208F861
:05078500BE530280429A
:06078A00BE55030209A8A0
:06079000BE58030209B08F
:030796000209BC99
:05079900D201020695EB
:05079E00D203020695E4
:0507A300D204020695DE
:0507A800D206020695D7
:0507AD00D207020695D1
:0E07B200900028E0FA24FEF8900028F086025D
:0C07C000088603188A821205200209C86E
:0E07CC00900028E0FA24FDF8900028F0860244
:0E07DA000886030886041818900017EAF0A39A
:0E07E800EBF0A3ECF0900017E0FAA3E0FBA307
:0E07F600E0FC8A828B838CF0120D35AA82AB58
:0E0804008390002DE0FBBBFF0590002DEAF075
:0C08120020013890002CE0FBC3EA9B5052
:0D081E002E90002CEBC39AF090002CE0FB14
:0D082B008B041B90002CEBF0BC0002801031
:0E083800758220C002C003120520D003D0023A
:0208460080E34D
:0508480090002CEBF014
:05084D0090002DE0FD0C
:0E085200C002900017E0FCA3E0FFA3E0FA8CC8
:0E086000828F838AF0120D88D00260538D04BF
:0E086E001DC374808CF063F08095F05044C080
:0A087C0002900017E0F509A3E0F573
:080886000AA3E0F50B74012543
:07088E0009FBE4350AFAAC96
:0C0895000B900017EBF0A3EAF0A3ECF0CE
:0708A100850982850A8385A9
:0C08A8000BF0120D88FAF582C002C005AA
:0B08B400120520D005D002D002809376
:0608BF002001030209C83C
:0D08C50090002CE0FBC3EA9B40030209C831
:0C08D20090002CEBC39AF090002CE0FA90
:0E08DE008A031A90002CEAF0BB00030209C343
:0C08EC00758220C002120520D00280E6B8
:0E08F800900028E0FB24FDF8900028F0860315
:0E0906000886040886071818900017EBF0A367
:0E091400ECF0A3EFF0900019E0FB247F5008F8
:0809220090002F7443F08020C7
:0D092A00EB249F500890002F7450F08013B4
:0D093700EB24BF500890002F7449F080069B
:0609440090002F7458F032
:0E094A0090002FE0FBF582C003120520D003C1
:0E09580075823AC003120520D003758230C0AC
:0E09660003120520D003758278C0031205200D
:07097400D003BB4902800F14
:05097B00BB5002800AE0
:0A098000900018E0FBF58212058AD2
:0C098A00900017E0FBF58212058A803215
:0A099600D20590002B740AF08028AF
:0809A00090002B7408F0802088
:0809A80090002B740AF0801886
:0809B00090002B7410F0801080
:0409B800D208800CD5
:0709BC008E82120520800568
:0509C30090002CEAF099
:0C09C80030086B900028E0FA24FCF89046
:0E09D4000028F08602088603088604088606BE
:0E09E200181818900017EAF0A3EBF0A3ECF041
:0B09F000A3EEF0900017741CF0A3743D
:0609FB000FF0A37480F070
:0E0A0100900017E0FBA3E0FCA3E0FD74012BC6
:0E0A0F00FEE43CFF8D02900017EEF0A3EFF026
:0E0A1D00A3EAF08B828C838DF0120D88FA70A4
:040A2B000302063A82
:070A2F008A8212052080CB32
:0B0A360090002BE0FABA000302063A21
:080A41009000367435F0A37437
:060A490000F030064C90A5
:0E0A4F000028E0FA14F8900028F08602EA333E
:0E0A5D0095E0FBFCFE900017EAF0A3EBF0A37F
:0B0A6B00ECF0A3EEF0300503020B10CE
:0E0A7600900017E0FAA3E0FBA3E0FCA3E0FE73
:0E0A84007B007C007E00900017EAF0A3EBF0F0
:080A9200A3ECF0A3EEF0807666
:0C0A9A0030072A900028E0FA24FCF890B5
:0E0AA6000028F08602088603088604088606EB
:0E0AB400181818900017EAF0A3EBF0A3ECF06E
:050AC200A3EEF08049E5
:0E0AC700900028E0FA24FEF8900028F0860245
:0E0AD50008860318EB3395E0FCFE900017EA4C
:0C0AE300F0A3EBF0A3ECF0A3EEF0200574
:0E0AEF0020900017E0FAA3E0FBA3E0FCA3E0D8
:0E0AFD00FE7C007E00900017EAF0A3EBF0A351
:050B0B00ECF0A3EEF088
:0C0B100030053E900017E0FAA3E0FBA3C4
:0E0B1C00E0FCA3E0FE30E72B900017E0FAA308
:0E0B2A00E0FBA3E0FCA3E0FEC3E49AFAE49B28
:0E0B3800FBE49CFCE49EFE900017EAF0A3EBA9
:090B4600F0A3ECF0A3EEF0800234
:020B4F00C205DD
:080B5100D20990002BE0FC75B5
:030B59000C3575E3
:040B5C000D007D000B
:0E0B600090001BE4F08C82C004C0051205AAB0
:0C0B6E00D005D004200932C00490001B08
:0A0B7A00E0FFC4FF850C82850D83A7
:0A0B8400E0FA4207850C82850D831C
:0A0B8E00EFF0150C74FFB50C021512
:010B98000D4F
:080B9900900036E50CF0A3E525
:060BA1000DF0D004800CF1
:090BA70090001BE0FF850C828523
:030BB0000D83F0C2
:090BB3000D90002EEDF0B2099046
:0E0BBC000017E0FFA3E0FAA3E0FEA3E0FBEFCA
:0C0BCA004A4E4B7091900036E50CF0A3F1
:090BD600E50DF090002EEDF09009
:0C0BDF00002CE0FA700690002C7401F06D
:0A0BEB0020022720012474012DFAD6
:050BF50090002CE0FB64
:0D0BFA00C3EA9B5011758220C002C0031297
:090C07000520D003D0021B80EA95
:050C100090002CEBF048
:0A0C150030051275822D12052090A3
:0B0C1F00002CE0FA1490002CF0802F55
:0C0C2A0090002EE0FA6028300312758262
:0B0C36002B12052090002CE0FA149017
:050C4100002CF08013FF
:0A0C46003004107582201205209082
:090C5000002CE0FA1490002CF0D5
:090C590020012F90002EE0FA901A
:040C6200002CE0FB87
:0E0C66008B041B90002CEBF0C3EA9C50363040
:060C740002047C30800246
:020C7A007C20DC
:0E0C7C008C82C002C003120520D003D002807B
:010C8A00DB8E
:0E0C8B0090002CE0FA90002EE0FCC39A500975
:090C990090002CEAC39CF0800CD1
:070CA20090002CE4F0800536
:050CA90090002CEBF0AF
:0D0CAE00900036E0FAA3E0FB90002EE0FC81
:0A0CBB008C061CEE6040B20920090F
:060CC500150ABA00010B44
:0E0CCB008A828B83E0FEC4540FFE90001BF063
:020CD900800E8B
:0E0CDB008A828B83E0FE53060F90001BEEF022
:0E0CE90090001BE0FEF582C002C003C00412A2
:0A0CF7000568D004D003D00280BAD3
:060D010020010302063A86
:050D070090002CE0FA51
:090D0C008A031AEB700302063A97
:0C0D1500758220C002120520D00280EB85
:080D21008D8212052002063A42
:0C0D290090001CE0FAA3E08A82F583220F
:0B0F1C003C4E4F20464C4F41543E001D
:0E0D3500AAF0AB83E582900038F0A3EBF0A3A8
:0E0D4300EAF07A007B00900038E0FCA3E0FDAF
:030D5100A3E0FE1E
:0E0D54008C828D838EF0120D88FFA3AC82ADD1
:0E0D620083900038ECF0A3EDF0A3EEF0EF600C
:080D7000070ABA00DF0B80DC6A
:0E0D7800900038ECF0A3EDF0A3EEF08A828B31
:020D86008322C6
:03001E00758121C8
:0A0021001201D1E58260030201CC58
:0E0D880020F71430F6148883A88220F507E6C1
:060D9600A8837583002212
:030D9C00E280F7FB
:030D9F00E49322B8
:020DA200E0224D
:0E0DA400E58290003BF090003BE0FABA61005F
:0B0DB2004009EA2485400475820122FC
:040DBD007582002219
:00000001FF
