:100000000C9434000C9451000C9451000C94510049
:100010000C9451000C9451000C9451000C9451001C
:100020000C9451000C9451000C9451000C9451000C
:100030000C9451000C9451000C9486000C945100C7
:100040000C9451000C9451000C9453000C945100EA
:100050000C9451000C9451000C9451000C945100DC
:100060000C9451000C94510011241FBECFEFD4E02A
:10007000DEBFCDBF12E0A0E0B1E0E2EFF8E202C0E7
:1000800005900D92AE3FB107D9F714E0AEEFB2E0A4
:1000900001C01D92AF3AB107E1F70E94D90B0C9451
:1000A00077140C9400001F920F920FB60F92112438
:1000B0002F938F939F93EF93FF93F894E091020314
:1000C000F09103038091C600E15FFC4F8083809133
:1000D000020390910303019690930303809302031C
:1000E0008091020390910303805A914020F0109276
:1000F0000303109202037894FF91EF919F918F91E7
:100100002F910F900FBE0F901F9018951F920F9276
:100110000FB60F9211248F939F9315BC10926E000F
:1001200082E085BB16BC1A9911C02A9A84E6909188
:100130000301891B87BD82E080936E0085BD9F917E
:100140008F910F900FBE0F901F9018952A98809155
:10015000030187BDF0CF83E084B98CEF8AB92A9A76
:10016000229A80910103882361F0813071F082E04E
:100170008093B10084BD80936E008091030187BDA0
:1001800008958FE387B988B9F2CF8FE388B987B92B
:10019000EECF882371F49FEFB89A9093B200B89B8A
:1001A000FECF882329F0B89A9093B200B89BFECF77
:1001B0000895982F9195F0CFCF93DF93EC0100979E
:1001C00071F08AEF0E94C9008AEF0E94C9008AEF8D
:1001D0000E94C9008AEF0E94C900219791F7DF9120
:1001E000CF9108959093C5008093C40082E08093DE
:1001F000C00088E98093C10086E08093C2007894B3
:100200000895982F8091C00085FFFCCF9093C60081
:10021000089580E000008F5F8E31E1F7089595B179
:100220009C7F95B99BB193709BB925B1982F937022
:10023000922B95B99BB18C7F982B9BB908958823FD
:1002400059F593E02CE788B1887F88B985B18C7F18
:1002500085B98BB183708BB985B1982B95B98BB16A
:10026000282B2BB980E000008F5F8E31E1F7409A98
:1002700080E000008F5F8E31E1F7409880E0000061
:100280008F5F8E31E1F788B1876088B980E0000028
:100290008F5F8E31E1F7089581508064982F9370BD
:1002A000282F2C7FD0CF98B1987F98B995B19C7F9B
:1002B00095B99BB193709BB925B1886B982F9370BA
:1002C000922B95B99BB18C7F892B8BB980E0000074
:1002D0008F5F8E31E1F7409A80E000008F5F8E31B2
:1002E000E1F7409880E000008F5F8E31E1F788B140
:1002F000876088B980E000008F5F8E31E1F7089554
:10030000419A95B19C7F95B99BB193709BB925B1EA
:10031000982F9370922B95B99BB18C7F982B9BB99A
:1003200080E000008F5F8E31E1F76130D9F06230FC
:10033000A9F080E000008F5F8E31E1F7409A80E005
:1003400000008F5F8E31E1F7409880E000008F5F02
:100350008E31E1F788B1856388B9089588B18A7DC7
:1003600088B9E7CF88B18A7E88B980E0E3CF85B1CC
:100370008C7F85B98BB183708BB985B1836085B96A
:100380008BB18C638BB988B1887F88B980E000001D
:100390008F5F8E31E1F7409A80E000008F5F8E31F1
:1003A000E1F7409888B1876088B908951F93162FA8
:1003B000882309F077C08FE30E941F0188B18F6303
:1003C00088B984B18C7F84B91AB880E000008F5F4F
:1003D0008E31E1F780E000008F5F8E31E1F7113060
:1003E00009F46FC0123009F463C080E000008F5F31
:1003F0008E31E1F780E000008F5F8E31E1F7409AA7
:1004000080E000008F5F8E31E1F780E000008F5FB9
:100410008E31E1F7409880E000008F5F8E31E1F788
:1004200080E000008F5F8E31E1F788B18F6388B97B
:1004300080E000008F5F8E31E1F780E000008F5F89
:100440008E31E1F71130C1F1123071F180E000001E
:100450008F5F8E31E1F780E000008F5F8E31E1F732
:10046000409A80E000008F5F8E31E1F780E000006D
:100470008F5F8E31E1F723B199B1409888B18F63D6
:1004800088B984B1836084B98AB18C6F8AB980E0FD
:1004900000008F5F8E31E1F723709C7F892F822BC4
:1004A0001F910895815088CF88B18E7D88B9CECFB5
:1004B00088B18E7D88B999CF88B18E7E88B980E069
:1004C000C6CF88B18E7E88B980E090CFEF92FF9240
:1004D0000F931F93CF93DF937B018C010E94B41283
:1004E000EB01BE01882777FD8095982F0E94E712C7
:1004F0009B01AC01C801B7010E94E71120E030E088
:1005000040E05FE30E94731388230CF02196CE0134
:10051000DF91CF911F910F91FF90EF900895F9997E
:10052000FECF92BD81BD60BDFA9AF99A0895F999FE
:10053000FECF92BD81BDF89A80B5089522E024BD1A
:10054000909103019436A0F4992369F015BC1092A0
:100550006E0084E6891B87BD20936E0025BD8FB792
:1005600080688FBF089515BC10926E002A9A089576
:1005700015BC10926E002A980895982F813059F07A
:100580008230C9F08330F9F08430C9F1853021F12F
:10059000863031F108958093C5008FE98093C400BF
:1005A00082E08093C00088E98093C10086E0809358
:1005B000C200789408951092C5008FEC8093C40017
:1005C0009093C000F0CF1092C50087E68093C400DE
:1005D00082E08093C000E7CF1092C50081E2DECFB9
:1005E0001092C50080E18093C40082E08093C00037
:1005F00088E98093C1009093C20078940895109286
:10060000C50083E38093C40082E08093C000CBCF19
:100610000F931F9394B19C7F94B99AB192709AB939
:1006200098B1997F98B9813009F4439882E00E948B
:10063000C90003B1037019B188B18E6088B982E036
:100640000E94C9001C7F812F802B1F910F9108955C
:1006500094B1936094B99AB19C6F9AB995B19C7F0B
:1006600095B99BB193709BB925B1962F9370922B3E
:1006700095B99BB16C7F962B9BB98130B1F088B155
:100680008A7F88B982E00E94C90088B18D6088B9EC
:1006900082E00E94C90084B18C7F84B98AB18270E3
:1006A0008AB982E00E94C900089588B1827F88B922
:1006B000E9CFEF92FF920F931F93CF93DF93F82E22
:1006C000162F50910103652F70E0212F30E0CB01F0
:1006D000880F991F82959295907F9827807F982701
:1006E00081589F4F821793070CF460C0E42FF0E00D
:1006F0000024769567950794769567950794762FED
:10070000602D615C7F4F6E177F070CF44FC08091A6
:100710000003813009F49EC0552309F04EC0103407
:1007200008F49EC082E080930B03105410930A03D8
:1007300046954695469587E0841B80930C0327E0F9
:1007400030E0A9014E1B5F0B281B3109220F331F1C
:10075000220F331F220F331F420F531F21E030E0BF
:1007600002C0220F331F4A95E2F7122F209309038C
:100770000E94530100910A03802F0E941F01E09004
:100780000B03802F6E2D0E94D60180930803FF205B
:1007900009F062C01095182310930903802F0E945E
:1007A0001F01809109036E2D0E948001DF91CF917E
:1007B0001F910F91FF90EF9008955130B9F78FE797
:1007C00090E08E1B9F0B880F991F880F991FEC01DB
:1007D000CC0FDD1FCC0FDD1FC80FD91F812F8695D1
:1007E00086958695C80FD11D80E00E94080390E091
:1007F00083709070892BC1F381E06C2F0E942803D5
:1008000080E00E94080390E083709070892BC1F310
:1008100081E06D2F0E94280380E00E94080390E091
:1008200083709070892BC1F380E064E20E942803FA
:100830001095186FFF2009F4177F80E00E940803CD
:1008400090E083709070892BC1F380E0612F0E944B
:100850002803ACCFF82660CF182B109309039ECF46
:1008600081E080930B0310930A0362CFDF92EF9233
:10087000FF920F931F93E82ED62EF42E022F209373
:100880000603261790F0FE14B0F01E2D80E0612FB5
:10089000402F0E9459031F5FF116C0F701500D153C
:1008A00090F700930603109307031F910F91FF9099
:1008B000EF90DF9008951E2D01500D1520F7F1CF18
:1008C0000F931F93882309F043C04091FE024630E6
:1008D000E0F580910103682F70E04858CB01880F44
:1008E000991F880F991F9C01220F331F220F331F5E
:1008F000220F331F820F931F480F4093FE02409137
:100900000001485F40930001242F30E0CB01002418
:10091000969587950794969587950794982F802D9F
:10092000CF9682179307B4F460957095002476955E
:1009300067950794769567950794762F602D842F99
:10094000860F80930001482F05C046504093FE0259
:10095000409100015091FE02052F142F17504117AE
:1009600060F080E0602F412F0E9459031F5F40918B
:1009700000014117B0F75091FE020F5F852F90E004
:100980000596202F30E0821793073CF780910103F2
:10099000882321F460E040E00E9459031F910F91E9
:1009A00008952F923F924F925F926F927F928F9213
:1009B0009F92AF92BF92CF92DF92EF92FF920F93EE
:1009C0001F93DF93CF93CDB7DEB72B970FB6F89475
:1009D000DEBF0FBECDBF8D836E834F830887A62EEB
:1009E000BB24309101033987432F50E0CA01880F9F
:1009F000991F82959295907F9827807F982781589C
:100A00009F4F822E99248A159B051CF08815990505
:100A1000CCF42B960FB6F894DEBF0FBECDBFCF91AE
:100A2000DF911F910F91FF90EF90DF90CF90BF90DB
:100A3000AF909F908F907F906F905F904F903F907E
:100A40002F9008958F81282E3324CA010024969573
:100A500087950794969587950794982F802DCF9624
:100A6000E02FF0E0FC83EB838215930594F28E1760
:100A70009F077CF294012A193B093A8329836F016D
:100A8000C218D308B601882777FD8095982F0E9459
:100A9000E7127B018C0149815A81BA01882777FDD1
:100AA0008095982F0E94E7129B01AC01C801B70105
:100AB0000E944C122B013C01B101882777FD8095E3
:100AC000982F0E94E7127B018C01B501882777FDE2
:100AD0008095982F0E94E712A30192010E9477133C
:100AE0009B01AC01C801B7010E94E7110E94B4123A
:100AF0009B01C601D7FCF8C0E981FA81E817F90724
:100B00000CF05BC04F815885451708F096C08B816B
:100B10009C81821593050CF486C04101821A930AC8
:100B2000CC24DD2417C0BB86AA864F814C0D8D8155
:100B30006A850E9459030894C11CD11C0894811C29
:100B4000911CC601820D931DEB81FC81E817F9070A
:100B50000CF466C0E981FA81EF2B29F3B4018827F0
:100B600077FD8095982F0E94E712A30192010E94C1
:100B70004C127B018C010E94B4127B876A879B0117
:100B8000B901882777FD8095982F0E94E7129B0175
:100B9000AC01C801B7010E94E71120E030E040E05D
:100BA0005FE30E94731388230CF4BFCF4A855B85F3
:100BB0004F5F5F4F5B874A87B8CF8A149B049CF1D5
:100BC000B901882777FD8095982F0E94E7126B0165
:100BD0007C01222433241E81120DB1016A0D7B1D7C
:100BE000882777FD8095982F0E94E712A301920134
:100BF0000E947713A70196010E94E8110E94B91282
:100C00009B01AC018D81612F422F0E9459030894F2
:100C1000211C311CC501820D931D88169906DCF636
:100C2000F0910103F9872985222309F0F2CE80E0B3
:100C300060E040E00E945903ECCE4F815885541784
:100C400090F78B819C81281639066CF34101821A3A
:100C5000930ACC24DD2416C0BB86AA864F814C198A
:100C60008D816A850E9459030894C11CD11C089487
:100C700081089108C1018C199D09EB81FC818E17B7
:100C80009F0774F2E981FA81EF2B31F3B4018827D1
:100C900077FD8095982F0E94E712A30192010E9490
:100CA0004C127B018C010E94B4127B876A879B01E6
:100CB000B901882777FD8095982F0E94E7129B0144
:100CC000AC01C801B7010E94E71120E030E040E02C
:100CD0005FE30E94731388230CF24A855B854F5FA4
:100CE0005F4F5B874A87BACF909581959F4F04CF1E
:100CF000DF92EF92FF920F931F93F82ED62EE42EE1
:100D0000122F81E0642F422F2E2D0D2D0E94D10431
:100D100081E06F2D412F2E2D012F0E94D10481E003
:100D20006F2D412F2F2D0D2D0E94D10481E06F2DAD
:100D30004D2D2E2D0E94D1041F910F91FF90EF9009
:100D4000DF900895DF92EF92FF920F931F93CF935E
:100D5000DF93D82E85E0689FB0011124EB01CD57B9
:100D6000DF4F08E8E02E00E0F02EE60EF71E0881C7
:100D700010E004C01F5F183071F0000F07FFFACFBA
:100D800040910001411B8D2D6091FE020E9459038C
:100D90001F5F183091F72091FE022F5F2093FE0213
:100DA0002196CE15DF0519F72F5F2093FE02609183
:100DB0000103462F50E030E0CA01880F991F829549
:100DC0009295907F9827807F982787589F4F82170A
:100DD00093079CF41092FE02809100018830D8F4B1
:100DE0000024569547950794569547950794542F98
:100DF000402D842F815C80930001662321F480E0E4
:100E000040E00E945903DF91CF911F910F91FF9015
:100E1000EF90DF900895885080930001EECFCF933C
:100E2000DF9380910103882309F450C0813009F0D9
:100E3000F4C080E00E94080390E083709070892BDA
:100E4000C1F381E060E00E94280380E00E94080373
:100E500090E083709070892BC1F381E060E00E9484
:100E6000280380E00E94080390E083709070892B33
:100E7000C1F380E064E20E942803C0E0D0E080E09B
:100E80000E94080390E083709070892BC1F38091D9
:100E90000003813009F4D7C0882309F4CFC080E073
:100EA0000E94080390E083709070892BC1F380E06A
:100EB00060EC0E94280321968AE0C030D807F9F63A
:100EC0001092FE028FE780930001A7C000008F5FA1
:100ED0008E31E1F74091000330E088B1887F88B916
:100EE00085B18C7F85B98BB183708BB925B1932F78
:100EF000986B892F8370822B85B98BB19C7F982B3F
:100F00009BB980E000008F5F8E31E1F7409A80E06E
:100F100000008F5F8E31E1F7409880E000008F5F26
:100F20008E31E1F788B1876088B980E000008F5F7B
:100F30008E31E1F788B1887F88B985B18C7F85B91A
:100F40008BB183708BB985B185B95E9A80E0000062
:100F50008F5F8E31E1F7409A80E000008F5F8E3125
:100F6000E1F7409880E000008F5F8E31E1F788B1B3
:100F7000876088B9413009F453C085B18C7F85B949
:100F80008BB183708BB985B185B98BB18BB990E08A
:100F900080E000008F5F8E31E1F788B18A7E88B9EA
:100FA00080E000008F5F8E31E1F7409A80E0000022
:100FB0008F5F8E31E1F7409880E000008F5F8E31C7
:100FC000E1F788B1856188B980E000008F5F8E31DC
:100FD000E1F788B18A7D88B980E000008F5F8E31AB
:100FE000E1F7409A80E000008F5F8E31E1F7409892
:100FF00080E000008F5F8E31E1F788B1856288B9AB
:101000009F5F903409F0C4CF3F5F383009F065CF5F
:101010001092FE028FE380930001DF91CF9108953B
:1010200085B18C7F85B98BB183708BB985B18360B5
:1010300085B98BB18C6F8BB990E0AACF81E060E06D
:101040000E9428032CCF6FEF0E94280328CF80E056
:101050000E94080390E083709070892BC1F381E0B7
:1010600060E00E94280380E00E94080390E0837003
:101070009070892BC1F381E060E00E94280380E03A
:101080000E94080390E083709070892BC1F380E088
:1010900062E40E94280380E00E94080390E08370CD
:1010A0009070892BC1F381E064E10E94280380E005
:1010B0000E94080390E083709070892BC1F381E057
:1010C00060E00E94280380E00E94080390E08370A3
:1010D0009070892BC1F380E063E40E94280380E0D4
:1010E0000E94080390E083709070892BC1F380E028
:1010F00060E80E94280380E00E94080390E083706B
:101100009070892BC1F380E068E90E94280308955C
:101110002F923F924F925F926F927F928F929F9207
:10112000AF92BF92CF92DF92EF92FF920F931F93F5
:10113000DF93CF93CDB7DEB72C970FB6F894DEBF11
:101140000FBECDBFE82E6B018A011B01221A330AA4
:10115000C901860F971F98878F83821593050CF41A
:1011600079C0229FF001239FF00D329FF00D1124D2
:10117000FE83ED83BA01882777FD8095982F0E9422
:10118000E71269837A838B839C83F02FFF0FF987A3
:1011900026014218530831016C187D083C862B86C5
:1011A00088249924AA24BB24FA8723C08E2D682D75
:1011B0004A2D2B850C2D0E94D10449854A19098599
:1011C0000C198E2D682D2B850E94D1048B859C8552
:1011D00001960894410851080894611C711C56013D
:1011E0008B849C842F813885281739079CF19C8734
:1011F0008B87469CB001479C700D569C700D112446
:101200008D819E81680F791F882777FD8095982FA3
:101210000E94E7120E94DE1329813A814B815C8192
:101220000E94E7110E94B412CC24DD24C61AD70A0A
:10123000EB85FC852E163F060CF4B8CF8E2D6B8502
:101240004C2D0E9459034A854C198E2D6B850E94A6
:101250005903BCCF80910103882321F460E040E072
:101260000E9459032C960FB6F894DEBF0FBECDBF77
:10127000CF91DF911F910F91FF90EF90DF90CF9072
:10128000BF90AF909F908F907F906F905F904F90A6
:101290003F902F900895BF92CF92DF92EF92FF92EE
:1012A0000F931F93CF93DF938091010390E0880FFA
:1012B000991F82959295907F9827807F98276FE756
:1012C000C62EC80E880F991F4FE3D42ED80E38E2D1
:1012D000B32E1092FE02D092000100E010E203C093
:1012E0001F5F1B37B9F081E00E94600481E0612F2D
:1012F0000E94A2068091020390910303892B81F33F
:10130000DF91CF911F910F91FF90EF90DF90CF90E1
:10131000BF9008950F5F053009F70E940F0700E0A6
:1013200010E203C01F5F1B37B9F0809100018650A7
:1013300080930001893010F4D092000181E00E9476
:10134000600481E0612F0E94A206809102039091C7
:101350000303892B39F3D4CF0F5F053009F70E94BF
:101360000F0780910103682F70E015E0E5E0F0E0E1
:101370001BC01B5FA09101036A2F70E0E12FF0E01A
:101380009B01220F331F220F331F220F331FC9016E
:10139000880F991F880F991F880F991F821B930B25
:1013A000CF968E179F07F4F06C5F7F4FAB014350D1
:1013B0005040440F551F42955295507F5427407F0F
:1013C000542781E062957295707F7627607F76273B
:1013D0009F010E9488088091020390910303892B4A
:1013E00041F28ECFCC2009F479C0FD2C10E081E0D1
:1013F00060E04F2D212F00E00E94D10420910103D5
:1014000030E0C90180959095880F991F880F991F2A
:10141000880F991FF80E2C5F3F4F220F331F220FAA
:10142000331F120F1C1518F310E0FF2481E0612F09
:1014300040E02C2D0F2D0E94D1048091010390E0FB
:1014400001969C01220F331F220F331F220F331FDF
:10145000F20E0396880F991F880F991F180F1C15FD
:1014600028F3FD2C10E081E0612F4D2D2C2D0F2D48
:101470000E94D1042091010330E0C901809590952C
:10148000880F991F880F991F880F991FF80E2C5FDE
:101490003F4F220F331F220F331F120F1C1518F35B
:1014A00010E0FF2481E060E04F2D212F0D2D0E94E0
:1014B000D104A09101038A2F90E001969C01220F94
:1014C000331F220F331F220F331FF20E0396880F94
:1014D000991F880F991F180F1C1520F36A2F70E0B1
:1014E00015E0E5E0F0E01BC01B5FA09101036A2F4F
:1014F00070E0E12FF0E09B01220F331F220F331F1A
:10150000220F331FC901880F991F880F991F880F59
:10151000991F821B930BCF968E179F07F4F06C5F79
:101520007F4FAB0143505040440F551F4295529599
:10153000507F5427407F542780E062957295707FDA
:101540007627607F76279F010E948808809102039A
:1015500090910303892B41F2D3CECC2009F479C0BA
:10156000FD2C10E080E060E04F2D212F00E00E9474
:10157000D1042091010330E0C90180959095880F36
:10158000991F880F991F880F991FF80E2C5F3F4FE6
:10159000220F331F220F331F120F1C1518F310E0F8
:1015A000FF2480E0612F40E02C2D0F2D0E94D104FC
:1015B0008091010390E001969C01220F331F220FBE
:1015C000331F220F331FF20E0396880F991F880FC7
:1015D000991F180F1C1528F3FD2C10E080E0612FD7
:1015E0004D2D2C2D0F2D0E94D1042091010330E0B0
:1015F000C90180959095880F991F880F991F880FB2
:10160000991FF80E2C5F3F4F220F331F220F331FFD
:10161000120F1C1518F310E0FF2480E060E04F2D3E
:10162000212F0D2D0E94D104A09101038A2F90E05B
:1016300001969C01220F331F220F331F220F331FED
:10164000F20E0396880F991F880F991F180F1C150B
:1016500020F38091020390910303892B09F050CE6F
:10166000FA2EF294FF0CFF0C10ECF1222FE2F20E96
:10167000EE241E2D105F0F2D005F8E2D6F2D412F3C
:10168000202F0E9436048E2D6F2D412F202F0E9477
:101690007806A09101038A2F90E0BC01660F771FA6
:1016A000680F791FF61A2CEFF20E2AE0E20E4E2D8B
:1016B00050E0880F991F880F991F880F991F9C0170
:1016C000220F331F220F331F820F931F8C599F4FFE
:1016D0008417950774F6CB01880F991F96E1F92EB0
:1016E000F80EC5E0D1E00881AB9DC0011124682F40
:1016F000182F1C5985599F4F212F30E082179307CF
:1017000074F418C01F5FAB9DA00111249A012559E4
:101710003F4F812F90E0281739075CF0000F07FF3B
:10172000F1CF81E0612F4F2D0E945903A091010359
:10173000E9CF642F0981162F1459AB9DC0011124E4
:101740008D589F4F212F30E0821793076CF416C0FD
:101750001F5FAB9DC00111248D589F4F212F30E09A
:10176000821793075CF0000F07FFF2CF81E0612F33
:101770004F2D0E945903A0910103EACF229681E0E8
:10178000C332D80711F0FA94AECFAA2329F480E02F
:1017900060E040E00E94590388EE93E00E94DC0084
:1017A0008091000391E08927809300030E940F0736
:1017B00090CD7F928F929F92AF92BF92CF92DF9205
:1017C000EF92FF920F931F93CF93DF932B9A80E0BA
:1017D00000008F5F8E31E1F71B9B49C081E0809351
:1017E00001030E94AB0086E00E94BD0281E091E00F
:1017F0000E946510F999FECF12BC11BCF89A90B501
:10180000892F81508630B0F1F894F999FECF12BC3F
:1018100011BC86E080BDFA9AF99AF999FECF81E071
:1018200090E092BD81BD84E680BDFA9AF99AF9995B
:10183000FECF82E090E092BD81BD81E080BDFA9A4A
:10184000F99AF999FECF83E090E092BD81BD10BC7A
:10185000FA9AF99A789484E68093030186E080935B
:10186000020181E0809304011092000323C01092D2
:101870000103B7CF90930201F999FECF81E090E088
:1018800092BD81BDF89A80B580930301F999FECF8E
:1018900082E090E092BD81BDF89A80B5809304010A
:1018A000F999FECF83E090E092BD81BDF89A80B5B2
:1018B0008093000380910103882309F4C9C3813018
:1018C00051F4459882E390E00E94DC00459A0E9422
:1018D00027080E940F07809103010E949E0284EF57
:1018E00091E00E94DC0080910401813009F480C005
:1018F00080910103882321F460E040E00E945903B5
:10190000109203031092020388EE93E00E94DC0021
:101910000E940F078091020390910303892B09F421
:1019200092C381E061E30E94A20681E061E30E942C
:10193000A20681E065E30E94A20681E062E30E94C4
:10194000A20681E060E30E94A20681E060E30E94BB
:10195000A20686E0809302010E94BD02F894F999E4
:10196000FECF12BC11BC86E080BDFA9AF99A789439
:1019700088EE93E00E94DC000E940F072091040390
:1019800030910503BFE7FB2EAFE9EA2EC1E0D0E0BE
:10199000F2E0CF2ED12CE3E0AE2EB12C80910203E9
:1019A0009091030382179307C9F3F901E15FFC4F9C
:1019B0000081C90101969093050380930403805A26
:1019C000914020F01092050310920403083009F4AE
:1019D000F4C00C3709F45FC081E00E94600481E02C
:1019E000602F0E94A2062091040330910503D6CFF8
:1019F00080910103813009F444C048E3E42E38E2C9
:101A0000F32E88E390E02FE3C22ED12CC5E0D1E085
:101A100008E0702E7E0C1FE0A12EB12CA80EB91E7E
:101A2000872C992418810E2D07C00F5F802F90E01E
:101A3000C816D9064CF0110F17FFF7CF81E0602FC1
:101A40004F2D0E945903F1CF1981072DA814B90415
:101A500044F40FC00F5F802F90E0A816B9064CF039
:101A6000110F17FFF7CF81E0602F4F2D0E94590310
:101A7000F1CF229621E0C332D20709F439CFFA948C
:101A8000D1CF78E4E72E68E4F62E88E490E05FE4B6
:101A9000C52ED12CBBCF209104033091050380913A
:101AA00002039091030382179307C9F3F901E15FE1
:101AB000FC4FE081EE2309F488C0E43009F4B8C09B
:101AC000E23109F48DC2E33109F491C0E23009F446
:101AD00049C2F901E15FFC4F8081873009F4A3C15D
:101AE000F901E15FFC4F80818851823008F4FAC12E
:101AF000A901F901E15FFC4F8081803109F45BC1EC
:101B0000A901F901E15FFC4F8081833009F417C11D
:101B1000A901F901E15FFC4F8081853009F49DC086
:101B2000A901F901E15FFC4FE081EF3009F4DCC06D
:101B3000EC3009F033CF20E04F5F5F4FE1E0403AF7
:101B40005E0710F040E050E08091020390910303A3
:101B500048175907C9F32F5F253071F750930503D4
:101B600040930403FA01E15FFC4FDF0113979F01EB
:101B7000225030408F0101501040808134976081A5
:101B80004C91D9012C91F80100810E94D10420913F
:101B90000403309105032F5F3F4F309305032093DB
:101BA0000403F1E0203A3F0708F4F8CE1092050351
:101BB0001092040320E030E0F1CE80E00E94600447
:101BC0002091040330910503E9CE0E940F07209174
:101BD0000403309105032F5F3F4F3093050320939B
:101BE0000403B1E0203A3B0708F4D8CEDFCF4091A0
:101BF000040181E0482740930401C90101969093B4
:101C0000050380930403805A914020F0109205034D
:101C100010920403F894F999FECFD2BCC1BC40BD28
:101C2000FA9AF99A78942091040330910503B6CE7C
:101C30001092030310920203109205031092040302
:101C40000E944B090E940F07109203031092020397
:101C50002091040330910503A1CE20E04F5F5F4F38
:101C6000F1E0403A5F0710F040E050E0809102035D
:101C70009091030384179507C9F32F5F243071F700
:101C80005093050340930403FA01E15FFC4FDF0129
:101C900013979F0122503040AF01415050408C912A
:101CA000D9016C91DA014C9120810E943604209177
:101CB0000403309105032F5F3F4F309305032093BA
:101CC0000403B1E0203A3B0708F42ACF1092050341
:101CD0001092040320E030E0A901F901E15FFC4F1C
:101CE000E081EF3009F024CF20E04F5F5F4FE1E06B
:101CF000403A5E0710F040E050E08091020390917E
:101D0000030384179507C9F32F5F243071F75093AD
:101D1000050340930403FA01E15FFC4FDF011397D1
:101D20009F0122503040AF01415050408C91D90169
:101D30006C91DA014C9120810E94780648CF20E016
:101D40004F5F5F4FB1E0403A5B0710F040E050E07A
:101D5000809102039091030384179507C9F32F5FC5
:101D6000243071F74093040350930503FA01E15FB7
:101D7000FC4F339761914081329622913196808158
:101D800070E050E030E00E94880820910403309118
:101D900005032F5F3F4F3093050320930403E1E0D9
:101DA000203A3E0708F4B4CE1092050310920403C3
:101DB00020E030E0ADCE20E04F5F5F4F81E0403A61
:101DC000580710F040E050E0809102039091030327
:101DD00084179507C9F32F5F233071F740930403ED
:101DE00050930503FA01E15FFC4FDF0111978081F9
:101DF000329760814C910E945903209104033091E5
:101E000005032F5F3F4F3093050320930403A1E0A8
:101E1000203A3A0708F474CE109205031092040396
:101E200020E030E06DCEC9010196909305038093C8
:101E30000403805A914020F010920503109204038D
:101E4000E0910403F0910503809102039091030354
:101E50008E179F07C9F3E15FFC4F408160E070E09F
:101E6000473310F461E070E020E030E0413310F0DF
:101E700021E030E0629FC001639F900D729F900D42
:101E80001124892B19F040534093020180910201E3
:101E90000E94BD02F89480910201F999FECF12BC14
:101EA00011BC80BDFA9AF99A78942091040330917C
:101EB00005032F5F3F4F3093050320930403E1E0B8
:101EC000203A3E0708F40CCE10920503109204034A
:101ED00020E030E0F901E15FFC4F808188518230E1
:101EE00008F006CEC9010196909305038093040380
:101EF000805A914020F01092050310920403209123
:101F0000040330910503809102039091030382172B
:101F10009307C9F3F901E15FFC4F82913196883153
:101F200009F486C0893109F48AC0C90101969093E9
:101F3000050380930403805A914020F0109205031A
:101F4000109204038091FE02803A10F0E092FE02AB
:101F50008091000188230CF46FC02091040330911C
:101F60000503C6CDC9010196909305038093040330
:101F7000805A914020F010920503109204032091A2
:101F800004033091050380910203909103038217AB
:101F90009307C9F3F901E15FFC4FE081E09303018E
:101FA000C90101969093050380930403805A9140E0
:101FB00020F010920503109204038E2F0E949E02BF
:101FC000F89480910301F999FECFD2BDC1BD80BDC7
:101FD000FA9AF99A7894209104033091050379CD07
:101FE0008091000391E08927809300030E940F07EE
:101FF00020910403309105032F5F3F4F3093050379
:1020000020930403E1E0203A3E0730F010920503EC
:102010001092040320E030E0F89480910003F999D5
:10202000FECFB2BCA1BC80BDFA9AF99A7894B6CC26
:1020300080818093FE0279CFF09200018ECF808163
:102040008093000172CF809102010E94BD0290CC6A
:10205000439882E390E00E94DC00439A0E940F07BD
:1020600080E00E94530180E00E941F010E94B7019E
:1020700088B1887F88B985B18C7F85B98BB1837031
:102080008BB985B185B98BB1806C8BB980E00000CC
:102090008F5F8E31E1F7409A80E000008F5F8E31D4
:1020A000E1F7409880E000008F5F8E31E1F788B162
:1020B000876088B980E000008F5F8E31E1F7109271
:1020C000FE0280E00E94530106CC90930E038093A1
:1020D0000D0308951F93182F8A3049F0E0910D03E6
:1020E000F0910E03812F90E009951F910895E091E2
:1020F0000D03F0910E038DE090E00995EFCF2F9244
:102100003F924F925F926F927F928F929F92AF9287
:10211000BF92CF92DF92EF92FF920F931F93DF93C4
:10212000CF93CDB7DEB72D970FB6F894DEBF0FBEB5
:10213000CDBF8E010E5D1F4FF801219031908F01B0
:10214000F10181911F01853261F0882309F4B3C048
:102150000E946A1028018201F10181911F018532DC
:10216000A1F791911F01903309F49AC0903209F4BC
:1021700097C0892F66241D868C3641F18C3431F14D
:1021800090E0883549F1893568F4893409F4B4C0A0
:102190008A3408F001C1833471F0843409F4ACC08E
:1021A000280110C0893609F4A7C08A3608F0D5C0C6
:1021B000833609F09EC0F2E04F2E512C400E511E86
:1021C000F80180810E946A108201C6CFF1018191DD
:1021D0001F0191E08835B9F6A0E18A2E912CA12C3F
:1021E000B12C992309F4E5C044E0442E512C400E53
:1021F000511EF801C080D180E280F3808E01045F1F
:102200001F4F1C86C701B601A50194010E945514F9
:1022100020E3722E760EF9E3F71518F497E3792E82
:10222000760EF80172928F01C701B601A5019401E3
:102230000E945514C901DA016C017D01FD85FF235F
:1022400011F0F150FD870097A105B105D9F6A8015D
:102250002D85222309F4B9C08D858150282F30E0C7
:1022600001501040C801821B930B0F5F1F4FF801F4
:1022700062928F01E817F907D1F78901009510954F
:10228000040F151F662009F466CF862D0E946A1080
:102290000F5F1F4FF80160806620B9F782015CCFA5
:1022A000F10181911F01F82FF053FD87FA30E0F022
:1022B000692E1D8661CF2D960FB6F894DEBF0FBE36
:1022C000CDBFCF91DF911F910F91FF90EF90DF90E5
:1022D000CF90BF90AF909F908F907F906F905F90C6
:1022E0004F903F902F900895F10181911F01692E29
:1022F00043CF843609F054CF9923B9F462E0462ED7
:10230000512C400E511EF801808191817C010027E3
:10231000F7FC0095102F17FD14C0670178015AE0F3
:10232000852E912CA12CB12C69CF74E0472E512C15
:10233000400E511EF801E080F1800281138117FFE9
:10234000ECCF10950095F094E094E11CF11C011D78
:10235000111D8DE20E946A10E0CF853711F1883798
:1023600009F43ACF833709F01BCFE2E04E2E512C0F
:10237000400E511EF80100811181F80180818823EF
:1023800009F4E9CE0E946A100F5F1F4FF8018081A7
:102390008823C1F78201E0CE833539F3853509F012
:1023A000FFCE8AE0882E912CA12CB12C992309F024
:1023B0001BCF32E0432E512C400E511EF80180817C
:1023C00091816C01EE24FF2419CF672C5BCF50580C
:1023D000BB27AA270ED04DC13ED130F043D120F00B
:1023E00031F49F3F11F41EF433C10EF4E095E7FB86
:1023F00029C1E92F4FD180F3BA1762077307840709
:10240000950718F071F49EF567C10EF4E0950B2E58
:10241000BA2FA02D0B01B90190010C01CA01A00136
:102420001124FF27591B99F0593F50F4503E68F191
:102430001A16F040A22F232F342F4427585FF3CFD2
:10244000469537952795A795F0405395C9F77EF4A3
:102450001F16BA0B620B730B840BBAF09150A1F0EC
:10246000FF0FBB1F661F771F881FC2F70EC0BA0F72
:10247000621F731F841F48F4879577956795B795FA
:10248000F7959E3F08F0B3CF9395880F08F09927F2
:10249000EE0F9795879508950CD0EBC0E3D040F0F0
:1024A000DAD030F021F45F3F19F0CCC0511115C1E2
:1024B000CFC0F0D098F39923C9F35523B1F3951BFE
:1024C000550BBB27AA2762177307840738F09F5F55
:1024D0005F4F220F331F441FAA1FA9F333D00E2EC4
:1024E0003AF0E0E830D091505040E695001CCAF731
:1024F00029D0FE2F27D0660F771F881FBB1F2617F6
:1025000037074807AB07B0E809F0BB0B802DBF01C8
:10251000FF2793585F4F2AF09E3F510568F092C005
:10252000DCC05F3FECF3983EDCF3869577956795CA
:10253000B795F7959F5FC9F7880F911D9695879579
:1025400097F90895E1E0660F771F881FBB1F621798
:1025500073078407BA0720F0621B730B840BBA0B56
:10256000EE1F88F7E095089504D06894B111B5C0C6
:10257000089598D088F09F5790F0B92F9927B751B8
:10258000A0F0D1F0660F771F881F991F1AF0BA9537
:10259000C9F712C0B13081F09FD0B1E008959CC05E
:1025A000672F782F8827B85F39F0B93FCCF386952D
:1025B00077956795B395D9F73EF49095809570958A
:1025C00061957F4F8F4F9F4F0895E89409C097FB07
:1025D0003EF490958095709561957F4F8F4F9F4FFA
:1025E0009923A9F0F92F96E9BB279395F69587953E
:1025F00077956795B795F111F8CFFAF4BB0F11F401
:1026000060FF1BC06F5F7F4F8F4F9F4F16C08823A7
:1026100011F096E911C0772321F09EE8872F762FDD
:1026200005C0662371F096E8862F70E060E02AF01E
:102630009A95660F771F881FDAF7880F969587950A
:1026400097F9089597F99F6780E870E060E0089532
:102650009FEF80EC089500240A94161617061806BA
:102660000906089500240A94121613061406050696
:102670000895092E0394000C11F4882352F0BB0F27
:1026800040F4BF2B11F460FF04C06F5F7F4F8F4F8A
:102690009F4F089557FD9058440F551F59F05F3FC5
:1026A00071F04795880F97FB991F61F09F3F79F074
:1026B00087950895121613061406551FF2CF4695F6
:1026C000F1DF08C0161617061806991FF1CF869578
:1026D0007105610508940895E894BB27662777275C
:1026E000CB0197F90895A8D008F48FEF08950BD087
:1026F000C0CFB1DF28F0B6DF18F0952309F0A2CFE4
:10270000A7CF1124EACFC6DFA0F3959FD1F3950F91
:1027100050E0551F629FF001729FBB27F00DB11D65
:10272000639FAA27F00DB11DAA1F649F6627B00DF5
:10273000A11D661F829F2227B00DA11D621F739FDE
:10274000B00DA11D621F839FA00D611D221F749FEC
:102750003327A00D611D231F849F600D211D822F33
:10276000762F6A2F11249F5750408AF0E1F088237A
:102770004AF0EE0FFF1FBB1F661F771F881F915087
:102780005040A9F79E3F510570F05CCFA6CF5F3F48
:10279000ECF3983EDCF3869577956795B795F795BA
:1027A000E7959F5FC1F7FE2B880F911D9695879542
:1027B00097F9089511F40EF44BCF62C073DFD0F394
:1027C0009923D9F3CEF39F57550B87FF67D0002489
:1027D000A0E640EA900180585695979528F4805CD1
:1027E000660F771F881F20F026173707480730F439
:1027F000621B730B840B202931294A2BA695179451
:102800000794202531254A2758F7660F771F881F20
:1028100020F026173707480730F4620B730B840B40
:10282000200D311D411DA09581F7B901842F9158CC
:10283000880F969587950895990F0008550FAA0B54
:10284000E0E8FEEF16161706E807F907C0F01216C3
:102850001306E407F50798F0621B730B840B950BC6
:1028600039F40A2661F0232B242B252B21F408951B
:102870000A2609F4A140A6958FEF811D811D0895B8
:102880009F3F31F0915020F4879577956795B795E4
:10289000880F911D9695879597F90895915050400E
:1028A000660F771F881FD2F70895A1E21A2EAA1B80
:1028B000BB1BFD010DC0AA1FBB1FEE1FFF1FA217F0
:1028C000B307E407F50720F0A21BB30BE40BF50BED
:1028D000661F771F881F991F1A9469F76095709576
:1028E000809590959B01AC01BD01CF010895F894AE
:0228F000FFCF18
:1028F2003F0106640101C00380038001D001F80C8E
:10290200F818F81FF81FF81FF01FE01FC01C00186E
:10291200001000000000000000F6F6000000E000D9
:10292200E00028FE28FE280064D65408C2CC1026F7
:10293200C64CB2926C0A0000E000000038448200EB
:1029420000824438008850F8508808083E08080081
:102952000005060008080808080000060600020C28
:102962001060807C8A92A27C0042FE020042868A2B
:102972009262448292926C103050FE10E4A2A2A2A3
:102982009C3C5292920C808698E0806C9292926C5F
:1029920060929294780000363600000035360010BE
:1029A20028448200282828282800824428104080B1
:1029B2008A90607C82BABA623E4888483EFE929211
:1029C200926C7C82828244FE8282827CFE9292920D
:1029D20082FE909090807C82828A4EFE101010FEC1
:1029E2008282FE82828482FC8080FE10284482FEE3
:1029F20002020202FE402040FEFE60100CFE7C82BB
:102A020082827CFE909090607C8282867EFE90988C
:102A12009462649292924C8080FE8080FC02020258
:102A2200FCF8040204F8FC020C02FCC6281028C6BA
:102A3200C0201E20C0868A92A2C20000FE82000030
:102A4200000000008060100C022040804020010144
:102A52000101018040200000042A2A2A1EFE1222BF
:102A6200221C1C222222141C222212FE1C2A2A2A86
:102A720018107E908040182525251EFE1010100E7D
:102A820000125E0200020101115EFE08081422001B
:102A920082FE02003E201C201E3E2020201E1C2200
:102AA20022221C3F242424181824243F013E1020F3
:102AB2002010122A2A2A0400103C12043C020202AC
:102AC2003E300C020C303806180638221408142244
:102AD200380505053E22262A322200106C82820425
:0E2AE20002FF020482826C1000081018081017
:00000001FF
