:100000000C9434000C9451000C9451000C94510049
:100010000C9451000C9451000C9451000C9451001C
:100020000C9451000C9451000C9451000C9451000C
:100030000C9451000C9451000C9486000C945100C7
:100040000C9451000C9451000C9453000C945100EA
:100050000C9451000C9451000C9451000C945100DC
:100060000C9451000C94510011241FBECFEFD4E02A
:10007000DEBFCDBF12E0A0E0B1E0EEE4FCE102C0E3
:1000800005900D92AE3FB107D9F714E0AEEFB2E0A4
:1000900001C01D92A83AB107E1F70E94F1060C9445
:1000A000260E0C9400001F920F920FB60F9211248F
:1000B0002F938F939F93EF93FF93F894E091000316
:1000C000F09101038091C600E85FFC4F808380912E
:1000D0000003909101030196909301038093000324
:1000E0008091000390910103805A914020F010927A
:1000F0000103109200037894FF91EF919F918F91EB
:100100002F910F900FBE0F901F9018951F920F9276
:100110000FB60F9211248F939F9315BC10926E000F
:1001200082E085BB16BC909102011A9B03C02A98FD
:1001300097BD04C02A9A84E6891B87BD82E080931C
:100140006E0085BD9F918F910F900FBE0F901F90F5
:1001500018952A9A229A8FE188B945988FE387B932
:1001600082E08093B10084BD80936E008091020193
:1001700087BD0895882311F491E001C0982FB89AA3
:1001800091959093B200B89BFECF882329F0B89A3E
:100190009093B200B89BFECF0895CF93DF93EC010C
:1001A0000DC08AEF0E94BA008AEF0E94BA008AEF5F
:1001B0000E94BA008AEF0E94BA002197209789F71F
:1001C000DF91CF910895292F33272093C500809385
:1001D000C40082E08093C00088E98093C10086E07B
:1001E0008093C20078940895982F8091C00085FF75
:1001F000FCCF9093C600089595B19C7F95B99BB1B3
:1002000093709BB925B1982F9370922B95B99BB1A0
:100210008C7F982B9BB908950F931F9394B19C7F6B
:1002200094B99AB192709AB998B1997F98B981307E
:1002300009F4439880E00E94BA0003B1037019B139
:1002400088B18E6088B980E00E94BA001C7F102BB4
:10025000812F90E01F910F9108951F93182F862FE3
:1002600094B1936094B99AB19C6F9AB90E94FC00C2
:10027000113019F488B1827F02C088B18A7F88B9B1
:1002800080E00E94BA0088B18D6088B980E00E9449
:10029000BA0084B18C7F84B98AB182708AB980E057
:1002A0000E94BA001F91089580E00E940C0190E026
:1002B00083709070892BC1F360E081E00E942D0172
:1002C00080E00E940C0190E083709070892BC1F354
:1002D00060E081E00E942D0180E00E940C0190E02E
:1002E00083709070892BC1F362E480E00E942D013D
:1002F00080E00E940C0190E083709070892BC1F324
:1003000064E181E00E942D0180E00E940C0190E0F8
:1003100083709070892BC1F360E081E00E942D0111
:1003200080E00E940C0190E083709070892BC1F3F3
:1003300063E480E00E942D0180E00E940C0190E0C7
:1003400083709070892BC1F360E880E00E942D01DA
:1003500080E00E940C0190E083709070892BC1F3C3
:1003600068E980E00E942D010895CF93DF9380E03B
:100370000E940C0190E083709070892BC1F360E0C3
:1003800081E00E942D0180E00E940C0190E08370CA
:100390009070892BC1F360E081E00E942D0180E024
:1003A0000E940C0190E083709070892BC1F364E28D
:1003B00080E00E942D01C0E0D0E080E00E940C01AE
:1003C00090E083709070892BC1F38091FF0281309F
:1003D00011F46FEF04C0882321F460E081E00E94F3
:1003E0002D0180E00E940C0190E083709070892BB9
:1003F000C1F360EC80E00E942D0121968AE0C030BC
:10040000D807DCF21092FE028FE780930001DF91A3
:10041000CF9108950F931F93CF93DF93082F162F3B
:100420008091FF02813009F40827103A08F04BC090
:1004300047FD49C08FE790E0841B910924E130E03B
:10044000829FE001839FD00D929FD00D1124812FB8
:10045000869586958695C80FD11D80E00E940C0177
:1004600090E083709070892BC1F36C2F81E00E9423
:100470002D0180E00E940C0190E083709070892B28
:10048000C1F36D2F772781E00E942D0180E00E944B
:100490000C0190E083709070892BC1F364E280E0DE
:1004A0000E942D011095186F002309F4177F80E03A
:1004B0000E940C0190E083709070892BC1F3612F32
:1004C00080E00E942D01DF91CF911F910F9108953F
:1004D000EF92FF920F931F93CF93DF937B018C01D9
:1004E0000E94510CEB01BE01882777FD8095982F63
:1004F0000E94840C9B01AC01C801B7010E94840BCF
:1005000020E030E040E05FE30E94C30C88230CF061
:100510002196CE01DF91CF911F910F91FF90EF9027
:1005200008952F923F924F925F926F927F928F9297
:100530009F92AF92BF92CF92DF92EF92FF920F9372
:100540001F93CF93DF93CDB7DEB728970FB6F894FC
:10055000DEBF0FBECDBF8D836E83242E302E603A5A
:1005600008F0F4C0203A08F0F1C047FDEFC007FDE5
:10057000EDC0822F90E09C838B83662E77242C0124
:1005800046185708E02FF0E0FA83E983242F30E083
:1005900038872F836F01C21AD30AB601882777FDE7
:1005A0008095982F0E94840C7B018C01B2018827D2
:1005B00077FD8095982F0E94840C9B01AC01C801A7
:1005C000B7010E94E90B4B015C01EF81F885BF0187
:1005D000882777FD8095982F0E94840C7B018C01E1
:1005E000B301882777FD8095982F0E94840C9B018A
:1005F000AC01C501B4010E943C0D9B01AC01C801D6
:10060000B7010E94840B0E94510C9601D7FE03C0D3
:10061000309521953F4F42165306BCF122243324D6
:1006200063012B01662457FC6094762C25C0882733
:1006300077FD8095982F0E94840C9B01AC01C50129
:10064000B4010E943C0D7B018C01C301B2010E94E8
:10065000840C9B01AC01C801B7010E94850B0E946C
:10066000560CDC01CB016E81620D482F8D810E94FA
:100670000A020894211C311CB1016C0D7D1D2B81D7
:100680003C81261737079CF661C0231478F50F814B
:100690001885061B170BEE24FF24CF80D8841DC0BD
:1006A0004114510411F4C3010DC0B801882777FD2E
:1006B0008095982F0E94840CA50194010E94E90B5B
:1006C0000E946802422D4E0D682F8D810E940A0201
:1006D0000894E11CF11C0F5F1F4FC7018C0D9D1D7D
:1006E000E981FA81E817F907DCF630C0321470F5B9
:1006F0000F811885061B170BEE24FF24CF80D884AA
:100700001DC04114510411F4C3010DC0B801882764
:1007100077FD8095982F0E94840CA50194010E947A
:10072000E90B0E946802422D4E19682F8D810E94AC
:100730000A020894E11CF11C01501040C6018E19F8
:100740009F0929813A8182179307DCF628960FB614
:10075000F894DEBF0FBECDBFDF91CF911F910F91F7
:10076000FF90EF90DF90CF90BF90AF909F908F90D1
:100770007F906F905F904F903F902F900895AF9231
:10078000BF92CF92DF92EF92FF920F931F93CF937E
:10079000DF93C82E85E0689FB0011124605A704035
:1007A00052E2E52E51E0F52EE60EF71EEB0145E094
:1007B000A42EB12CA60EB71E1EC0F701D08000E0FB
:1007C00010E0D7FE08C040910001401B6091FE027E
:1007D0008C2D0E940A020F5F1F4F0830110511F087
:1007E000DD0CEFCF8091FE028F5F8093FE02219699
:1007F0000894E11CF11CCA15DB05FCF28091FE0295
:100800008F5F8093FE0290E08A3991055CF0109230
:10081000FE0280910001883010F48FE701C08850FB
:1008200080930001DF91CF911F910F91FF90EF9086
:10083000DF90CF90BF90AF9008950F931F938823C0
:10084000B1F48091FE02863078F488568093FE02DF
:1008500090910001892F885F8093000187FF07C076
:1008600098579093000103C086508093FE02009138
:10087000FE020FC010910001175006C0412F602FDB
:1008800080E00E940A021F5F809100018117B0F78B
:100890000F5F202F30E08091FE0290E0069628172F
:1008A000390744F31F910F910895DF92EF92FF9261
:1008B0000F931F93D82EE62EF42E022F10910503CE
:1008C00009C0402F612F80E00E940A021F5FF116CD
:1008D000C0F701500E1510F01D2DF9CF1093050330
:1008E000009304031F910F91FF90EF90DF90089504
:1008F000DF92EF92FF920F931F93D82E162FF42EB4
:10090000E22E022F282F462F682F81E00E949102AD
:10091000012F2F2D412F6D2D81E00E9491020E2D70
:100920002F2D412F6F2D81E00E9491022F2D4E2DF2
:100930006D2D81E00E9491021F910F91FF90EF9029
:10094000DF900895F999FECF92BD81BD60BDFA9AFE
:10095000F99A0895F999FECF92BD81BDF89A80B5B4
:1009600090E00895813019F48FE991E013C082304E
:1009700019F48FEC90E00EC0833019F487E690E014
:1009800009C0843019F483E390E004C0853029F471
:1009900081E290E00E94E3000895863021F480E136
:1009A00090E00E94E300089522E024BD90910201AE
:1009B000943628F015BC10926E002A980895992359
:1009C00029F415BC10926E002A9A089515BC109255
:1009D0006E0084E6891B87BD20936E0025BD8FB70E
:1009E00080688FBF08952F923F924F925F926F92CF
:1009F0007F928F929F92AF92BF92CF92DF92EF92AF
:100A0000FF920F931F93CF93DF93CDB7DEB7299754
:100A10000FB6F894DEBF0FBECDBF582E5B01A21AF1
:100A2000B30AC901860F971F9A838983229F1001F9
:100A3000239F300C329F300C1124442E440C65014E
:100A4000C61AD70AB986A8866624772488249924EA
:100A5000CA01AA2797FDA095BA2F8B839C83AD83EB
:100A6000BE834F8251C0CC9CC001CD9C900DDC9CBC
:100A7000900D1124B101681B790B882777FD8095B3
:100A8000982F0E94840C0E94A30D7B018C016B8126
:100A90007C818D819E810E94840C9B01AC01C801E8
:100AA000B7010E94840B0E94510CEE24FF24E61A29
:100AB000F70AA885B985AA16BB068CF40E2D2885E1
:100AC000482D662D852D0E949102042D0E19442D6E
:100AD00048192885662D852D0E9491020BC04E2D48
:100AE0006885852D0E940A024F814E196885852DE3
:100AF0000E940A020894C11CD11C470168847984B1
:100B0000F3013196F987E8872885398589819A81AB
:100B1000821793070CF0A7CF29960FB6F894DEBF83
:100B20000FBECDBFDF91CF911F910F91FF90EF903E
:100B3000DF90CF90BF90AF909F908F907F906F90FD
:100B40005F904F903F902F900895CF92DF92EF9259
:100B5000FF920F931F93CF93DF9314E0C12E11E008
:100B6000D12E1092FE028FE78093000100E02CC18D
:100B700081E00E941D04612F81E00E94BF038091EB
:100B8000000390910103892B09F022C11F5F1B37DD
:100B900079F70F5F053009F017C10E94B50100E039
:100BA00015C180910001865080930001893018F4AE
:100BB0008FE78093000181E00E941D04612F81E096
:100BC0000E94BF038091000390910103892B09F0DB
:100BD000FFC01F5F1B3729F70F5F053009F0F6C014
:100BE0000E94B50105E010E0980140E450E060E5A6
:100BF00070E081E00E94F304809100039091010372
:100C0000892B09F0E5C00B5F1F4F0837110561F70D
:100C100010E0BFE7FB2E00E0212F4F2D60E081E0C8
:100C20000E94910280EFF80E1C5E103AA1F710E0CE
:100C3000FF240F2D2FE940E0612F81E00E949102F7
:100C400080E1F80E1C5E103AA1F710E0AFE7FA2E33
:100C50000F2D2FE94FE7612F81E00E94910280EF75
:100C6000F80E1C5E103AA1F710E0FF240FE7212FC9
:100C70004F2D60E081E00E94910280E1F80E1C5E41
:100C8000103AA1F705E010E0980140E450E060E57B
:100C900070E080E00E94F3048091000390910103D2
:100CA000892B09F095C00B5F1F4F0837110561F7BD
:100CB00010E0FFE7FF2E00E0212F4F2D60E080E0E5
:100CC0000E94910280EFF80E1C5E103AA1F710E02E
:100CD000FF240F2D2FE940E0612F80E00E94910258
:100CE00080E1F80E1C5E103AA1F710E0EFE7FE2E4F
:100CF0000F2D2FE94FE7612F80E00E94910280EFD6
:100D0000F80E1C5E103AA1F710E0FF240FE7212F28
:100D10004F2D60E080E00E94910280E1F80E1C5EA1
:100D2000103AA1F78091000390910103892B09F0FB
:100D30004FC0FF247FE6E72E1E2D105F0F2D005FB2
:100D4000212F402F6E2D8F2D0E945504212F402FD3
:100D50006E2D8F2D0E94780489EFE80E8AE0F80E40
:100D600086E9F81649F7E6016CE1F62E18810CE8E1
:100D700017FF05C04F2D602F81E00E940A020F5F10
:100D8000043911F0110FF4CF198117FF05C04F2D51
:100D9000602F81E00E940A020F5F0C3911F0110FE1
:100DA000F4CF22968EE0F81611F0FA94DFCF88EE99
:100DB00093E00E94CD008091FF0291E0892780930B
:100DC000FF020E94B501CDCE10E2D2CE10E2E9CEF4
:100DD000DF91CF911F910F91FF90EF90DF90CF9017
:100DE0000895FF920F931F93CF93DF930E94A90062
:100DF00086E00E94B20480E090E00E94AA04982F4E
:100E00008150863010F1F89466E080E090E00E9416
:100E1000A20464E681E090E00E94A20461E082E026
:100E200090E00E94A20460E083E090E00E94A204AF
:100E3000789484E68093020186E08093010181E04A
:100E4000809303011092FF0214C09093010181E08E
:100E500090E00E94AA048093020182E090E00E9448
:100E6000AA048093030183E090E00E94AA04809387
:100E7000FF0281E090E00E94CD00459A0E9454015B
:100E8000809102010E94D4040E94B5012A988091A9
:100E90000301813029F5C4E0D1E008E4F02E088197
:100EA00018E407FF05C04F2D612F81E00E940A0260
:100EB0001F5F103511F0000FF4CF098107FF05C047
:100EC0004F2D612F81E00E940A021F5F183511F03B
:100ED000000FF4CF22962AE3F21611F0FA94DFCF36
:100EE000109201031092000388EE93E00E94CD005F
:100EF0000E94B5018091000390910103892B29F193
:100F000061E381E00E94BF0361E381E00E94BF03CF
:100F100065E381E00E94BF0362E381E00E94BF03BA
:100F200060E381E00E94BF0360E381E00E94BF03B1
:100F300086E0809301010E94B204F89466E080E0AC
:100F400090E00E94A204789404C0809101010E9464
:100F5000B20488EE93E00E94CD000E94B50180911A
:100F60000003909101032091020330910303821743
:100F70009307A9F3F901E85FFC4F0081C9010196CD
:100F80009093030380930203805A914020F01092C3
:100F9000030310920203083021F480E00E941D0434
:100FA000DECF0C3709F069C22091020330910303B0
:100FB000809100039091010382179307C9F3F9010F
:100FC000E85FFC4FE081EE2319F40E94B50110C2E6
:100FD000E43089F41092010310920003109203038D
:100FE000109202030E94A5050E94B5011092010310
:100FF00010920003B4CFE23109F58091FF0291E035
:1010000089278093FF020E94B5018091020390918D
:10101000030301969093030380930203805A914047
:1010200020F01092030310920203F8946091FF02E3
:1010300083E090E00E94A204789491CFE331D1F450
:101040006091030181E0682760930301C901019663
:101050009093030380930203805A914020F01092F2
:10106000030310920203F89482E090E00E94A2042D
:10107000789475CFE230B1F5C901019690930303DE
:1010800080930203805A914020F010920303109243
:101090000203209102033091030380910003909199
:1010A000010382179307C9F3F901E85FFC4FE08160
:1010B000E0930201C9010196909303038093020318
:1010C000805A914020F010920303109202038E2F59
:1010D0000E94D404F8946091020181E090E00E94A3
:1010E000A20478942091020330910303F901E85F90
:1010F000FC4F8081873009F050C0C9010196909360
:10110000030380930203805A914020F0109203035E
:1011100010920203E0910203F09103038091000317
:10112000909101038E179F07C9F3E85FFC4F208160
:1011300040E050E0273310F441E050E080E090E0E0
:10114000213310F081E090E0BC01469FC001479F31
:10115000900D569F900D1124892B19F02053209348
:101160000101809101010E94B204F8946091010193
:1011700080E090E00E94A204789480910203909114
:10118000030301969093030380930203805A9140D6
:1011900020F0109203031092020320910203309179
:1011A0000303F901E85FFC4F80818851823008F029
:1011B00043C0C90101969093030380930203805AB0
:1011C000914020F010920303109202032091020339
:1011D00030910303809100039091010382179307DC
:1011E000C9F3F901E85FFC4F82913196883121F40F
:1011F00080818093FE0205C0893119F4808180933B
:101200000001C90101969093030380930203805A61
:10121000914020F010920303109202038091FE028D
:10122000803A18F08FE98093FE028091000187FFD9
:1012300003C08FE7809300012091020330910303E4
:10124000F901E85FFC4F8081803181F540E02F5F3C
:101250003F4F71E0203A370710F020E030E08091F6
:1012600000039091010382179307C9F34F5F433046
:1012700071F73093030320930203F901E85FFC4FF9
:1012800042916291329680810E940A02809102030B
:101290009091030301969093030380930203805A75
:1012A000914020F010920303109202032091020358
:1012B00030910303F901E85FFC4F80818330A1F591
:1012C00040E02F5F3F4F61E0203A360710F020E00A
:1012D00030E0809100039091010382179307C9F3D6
:1012E0004F5F443071F73093030320930203F901F9
:1012F000E85FFC4F229130E0429150E062913396DA
:1013000070E080810E94F3048091020390910303B6
:1013100001969093030380930203805A914020F03A
:1013200010920303109202032091020330910303F1
:10133000F901E85FFC4F8081853081F540E02F5F47
:101340003F4F81E0203A380710F020E030E08091F4
:1013500000039091010382179307C9F34F5F443054
:1013600071F73093030320930203F901E85FFC4F08
:1013700020814291629182910E94550480910203E2
:101380009091030301969093030380930203805A84
:10139000914020F010920303109202032091020367
:1013A00030910303F901E85FFC4FE081EF3071F504
:1013B00040E02F5F3F4F61E0203A360710F020E019
:1013C00030E0809100039091010382179307C9F3E5
:1013D0004F5F443071F73093030320930203F90108
:1013E000E85FFC4F20814291629182910E947804D3
:1013F00080910203909103030196909303038093DD
:101400000203805A914008F4AACD32C0EC3009F0B2
:10141000A6CD40E02F5F3F4F81E0203A380710F023
:1014200020E030E080910003909101038217930740
:10143000C9F34F5F453071F73093030320930203E4
:10144000F901E85FFC4F029122914291629134963A
:1014500080810E9491028091020390910303019682
:101460009093030380930203805A914008F477CD50
:10147000109203031092020372CD81E00E941D04BA
:10148000602F81E00E94BF036ACD90930703809391
:10149000060308951F93182F8A3039F4E09106034C
:1014A000F09107038DE090E00995E0910603F0913B
:1014B0000703812F90E009951F9108952F923F9285
:1014C0004F925F926F927F928F929F92AF92BF9254
:1014D000CF92DF92EF92FF920F931F93CF93DF9300
:1014E000CDB7DEB72E970FB6F894DEBF0FBECDBFD7
:1014F000FE01B39661907190FA83E9833EE0232E5A
:10150000312C2C0E3D1E05C0882309F4E4C00E9436
:101510004A0AF30181913F018532B1F781913F0180
:10152000803321F0803211F044240BC0F3019191FB
:101530003F0120ED522E590EF9E0F51520F4482E0A
:10154000892F552404C0482EF30181913F018C3628
:1015500021F08C3411F090E004C0F30181913F013F
:1015600091E08835E1F1893570F48934D9F18A3414
:1015700028F48334D9F0843451F634C08335F1F043
:10158000853529F6A2C0893669F18A3630F483366A
:1015900069F0843609F0BBCF25C0853709F495C0C2
:1015A0008837E9F0833709F0B2CF08C0E981FA81C2
:1015B0003296FA83E98332978081A9CFE981FA8153
:1015C0003296FA83E9831291029104C00E944A0A7A
:1015D0000F5F1F4FF80180818823C1F79ACF20E168
:1015E00030E075C0E981FA81992341F03496FA839D
:1015F000E98312910291F290E2900AC03296FA8346
:10160000E983929182917C010027F7FC0095102FCD
:1016100017FF0BC010950095F094E094E11CF11CAD
:10162000011D111D8DE20E944A0A2AE030E014C01B
:10163000E981FA813496FA83E98312910291F2905A
:10164000E2900AC0E981FA813296FA83E9839291A5
:1016500082917C0100E010E01E8661014901AA240C
:10166000BB24C801B701A50194010E94040E262FD6
:10167000205D2A3308F0295FF60122936F01C8012B
:10168000B701A50194010E94040E79018A0151104D
:101690005A94E114F1040105110519F7252DC6012D
:1016A00003C0F60142926F015A94FFEF5F16C9F72B
:1016B0008C01021B110904C00E944A0A0F5F1F4FD0
:1016C000F80180818823C1F724CF2AE030E09923F4
:1016D00009F0AECFB7CF2E960FB6F894DEBF0FBE8F
:1016E000CDBFDF91CF911F910F91FF90EF90DF90D1
:1016F000CF90BF90AF909F908F907F906F905F90B2
:101700004F903F902F9008955058BB27AA270ED096
:1017100079C16AD130F06FD120F031F49F3F11F4DC
:101720001EF45FC10EF4E095E7FB55C1E92F7BD1B4
:1017300080F3BA17620773078407950718F071F4EE
:101740009EF593C10EF4E0950B2EBA2FA02D0B0140
:10175000B90190010C01CA01A0011124FF27591BF6
:1017600099F0593F50F4503E68F11A16F040A22FFC
:10177000232F342F4427585FF3CF4695379527956D
:10178000A795F0405395C9F77EF41F16BA0B620B6C
:10179000730B840BBAF09150A1F0FF0FBB1F661FB3
:1017A000771F881FC2F70EC0BA0F621F731F841FF6
:1017B00048F4879577956795B795F7959E3F08F01C
:1017C000B3CF9395880F08F09927EE0F97958795DB
:1017D00008950CD017C10FD140F006D130F021F49C
:1017E0005F3F19F0F8C0511141C1FBC01CD198F303
:1017F0009923C9F35523B1F3951B550BBB27AA2792
:1018000062177307840738F09F5F5F4F220F331F03
:10181000441FAA1FA9F333D00E2E3AF0E0E830D0CF
:1018200091505040E695001CCAF729D0FE2F27D0D2
:10183000660F771F881FBB1F261737074807AB07A0
:10184000B0E809F0BB0B802DBF01FF2793585F4F15
:101850002AF09E3F510568F0BEC008C15F3FECF31F
:10186000983EDCF3869577956795B795F7959F5FDA
:10187000C9F7880F911D9695879597F90895E1E02E
:10188000660F771F881FBB1F621773078407BA078D
:1018900020F0621B730B840BBA0BEE1F88F7E095E8
:1018A000089504D06894B111E1C00895C4D088F0BF
:1018B0009F5790F0B92F9927B751A0F0D1F0660F3C
:1018C000771F881F991F1AF0BA95C9F712C0B13057
:1018D00081F0CBD0B1E00895C8C0672F782F88275A
:1018E000B85F39F0B93FCCF3869577956795B39596
:1018F000D9F73EF490958095709561957F4F8F4F05
:101900009F4F0895E89409C097FB3EF49095809509
:10191000709561957F4F8F4F9F4F9923A9F0F92FB5
:1019200096E9BB279395F695879577956795B79533
:10193000F111F8CFFAF4BB0F11F460FF1BC06F5F19
:101940007F4F8F4F9F4F16C0882311F096E911C02B
:10195000772321F09EE8872F762F05C0662371F04C
:1019600096E8862F70E060E02AF09A95660F771F60
:10197000881FDAF7880F9695879597F9089507D00D
:1019800008F481E0089503D008F48FEF0895990FCB
:101990000008550FAA0BE0E8FEEF16161706E80739
:1019A000F907C0F012161306E407F50798F0621B5A
:1019B000730B840B950B39F40A2661F0232B242B2F
:1019C000252B21F408950A2609F4A140A6958FEF4E
:1019D000811D811D089597F99F6780E870E060E0A0
:1019E00008959FEF80EC089500240A9416161706B8
:1019F00018060906089500240A9412161306140600
:101A000005060895092E0394000C11F4882352F062
:101A1000BB0F40F4BF2B11F460FF04C06F5F7F4F1A
:101A20008F4F9F4F089557FD9058440F551F59F001
:101A30005F3F71F04795880F97FB991F61F09F3FBB
:101A400079F087950895121613061406551FF2CFE4
:101A50004695F1DF08C0161617061806991FF1CF34
:101A600086957105610508940895E894BB2766275B
:101A70007727CB0197F908950BD0C4CFB5DF28F0B5
:101A8000BADF18F0952309F0A6CFABCF1124EECF23
:101A9000CADFA0F3959FD1F3950F50E0551F629FC9
:101AA000F001729FBB27F00DB11D639FAA27F00DB7
:101AB000B11DAA1F649F6627B00DA11D661F829FDE
:101AC0002227B00DA11D621F739FB00DA11D621FC3
:101AD000839FA00D611D221F749F3327A00D611DE0
:101AE000231F849F600D211D822F762F6A2F1124C2
:101AF0009F5750408AF0E1F088234AF0EE0FFF1F15
:101B0000BB1F661F771F881F91505040A9F79E3F4B
:101B1000510570F060CFAACF5F3FECF3983EDCF345
:101B2000869577956795B795F795E7959F5FC1F788
:101B3000FE2B880F911D9695879597F9089511F4BE
:101B40000EF44FCF4AC077DFD0F39923D9F3CEF309
:101B50009F57550B87FF51D056959795B0E020F4CD
:101B6000660F771F881FBB1F1F930F9300249001E0
:101B7000A0018001F001A0E80E0F1F1F0A1E511DD9
:101B8000601B710B8009B50B48F4600F711F801D3D
:101B9000B51F0E1B1F0B0A0A510907C02E0F3F1F4E
:101BA0004A1F0E0F1F1F0A1E511D660F771F881F29
:101BB000BB1FA695F795E795F8F6061717070806D1
:101BC0005B07211D311D411D0F911F91B901842F0C
:101BD0009158880F9695879508959F3F49F09150A9
:101BE00028F4869577956795B7959F5F80389F4FC6
:101BF000880F9695879597F9089591505040660FF4
:101C0000771F881FD2F70895A1E21A2EAA1BBB1BCB
:101C1000FD010DC0AA1FBB1FEE1FFF1FA217B307B8
:101C2000E407F50720F0A21BB30BE40BF50B661FCE
:101C3000771F881F991F1A9469F760957095809592
:0E1C400090959B01AC01BD01CF010895FFCF2F
:101C4E007F06640101C00380038001D001F80CF807
:101C5E0018F81FF81FF81FF01FE01FC01C00180017
:101C6E001000000000000000F6F6000000E000E0AA
:101C7E000028FE28FE280064D65408C2CC1026C6C2
:101C8E004CB2926C0A0000E0000000384482000062
:101C9E00824438008850F8508808083E0808000032
:101CAE0005060008080808080000060600020C10C9
:101CBE0060807C8A92A27C0042FE020042868A925A
:101CCE0062448292926C103050FE10E4A2A2A29C4A
:101CDE003C5292920C808698E0806C9292926C604C
:101CEE0092929478000036360000003536001028A7
:101CFE004482002828282828008244281040808A00
:101D0E0090607C82BABA623E4888483EFE929292B9
:101D1E006C7C82828244FE8282827CFE92929282CD
:101D2E00FE909090807C82828A4EFE101010FE8271
:101D3E0082FE82828482FC8080FE10284482FE0213
:101D4E00020202FE402040FEFE60100CFE7C8282EB
:101D5E00827CFE909090607C8282867EFE9098942B
:101D6E0062649292924C8080FE8080FC020202FCA1
:101D7E00F8040204F8FC020C02FCC6281028C6C0A7
:101D8E00201E20C0868A92A2C20000FE82008060C1
:101D9E00100C028060100C022040804020010101D6
:101DAE0001018040200000042A2A2A1EFE1222224F
:101DBE001C1C222222141C222212FE1C2A2A2A1841
:101DCE00107E908040182525251EFE1010100E0046
:101DDE00125E0200020101115EFE0808142200824A
:101DEE00FE02003E201C201E3E2020201E1C222211
:101DFE00221C3F242424181824243F013E102020A6
:101E0E0010122A2A2A0400103C12043C0202023E3E
:101E1E00300C020C303806180638221408142238FA
:101E2E000505053E22262A322200106C828204020B
:0E1E3E00FF020482826C1000081018081000C9
:00000001FF
